{
  "_format": "hh-sol-artifact-1",
  "contractName": "TokenMaster",
  "sourceName": "contracts/TokenMaster.sol",
  "abi": [
    {
      "inputs": [
        {
          "internalType": "string",
          "name": "_name",
          "type": "string"
        },
        {
          "internalType": "string",
          "name": "_symbol",
          "type": "string"
        }
      ],
      "stateMutability": "nonpayable",
      "type": "constructor"
    },
    {
      "anonymous": false,
      "inputs": [
        {
          "indexed": true,
          "internalType": "address",
          "name": "owner",
          "type": "address"
        },
        {
          "indexed": true,
          "internalType": "address",
          "name": "approved",
          "type": "address"
        },
        {
          "indexed": true,
          "internalType": "uint256",
          "name": "tokenId",
          "type": "uint256"
        }
      ],
      "name": "Approval",
      "type": "event"
    },
    {
      "anonymous": false,
      "inputs": [
        {
          "indexed": true,
          "internalType": "address",
          "name": "owner",
          "type": "address"
        },
        {
          "indexed": true,
          "internalType": "address",
          "name": "operator",
          "type": "address"
        },
        {
          "indexed": false,
          "internalType": "bool",
          "name": "approved",
          "type": "bool"
        }
      ],
      "name": "ApprovalForAll",
      "type": "event"
    },
    {
      "anonymous": false,
      "inputs": [
        {
          "indexed": true,
          "internalType": "address",
          "name": "from",
          "type": "address"
        },
        {
          "indexed": true,
          "internalType": "address",
          "name": "to",
          "type": "address"
        },
        {
          "indexed": true,
          "internalType": "uint256",
          "name": "tokenId",
          "type": "uint256"
        }
      ],
      "name": "Transfer",
      "type": "event"
    },
    {
      "inputs": [
        {
          "internalType": "address",
          "name": "to",
          "type": "address"
        },
        {
          "internalType": "uint256",
          "name": "tokenId",
          "type": "uint256"
        }
      ],
      "name": "approve",
      "outputs": [],
      "stateMutability": "nonpayable",
      "type": "function"
    },
    {
      "inputs": [
        {
          "internalType": "address",
          "name": "owner",
          "type": "address"
        }
      ],
      "name": "balanceOf",
      "outputs": [
        {
          "internalType": "uint256",
          "name": "",
          "type": "uint256"
        }
      ],
      "stateMutability": "view",
      "type": "function"
    },
    {
      "inputs": [
        {
          "internalType": "uint256",
          "name": "tokenId",
          "type": "uint256"
        }
      ],
      "name": "getApproved",
      "outputs": [
        {
          "internalType": "address",
          "name": "",
          "type": "address"
        }
      ],
      "stateMutability": "view",
      "type": "function"
    },
    {
      "inputs": [
        {
          "internalType": "uint256",
          "name": "_id",
          "type": "uint256"
        }
      ],
      "name": "getOccasion",
      "outputs": [
        {
          "components": [
            {
              "internalType": "uint256",
              "name": "id",
              "type": "uint256"
            },
            {
              "internalType": "string",
              "name": "name",
              "type": "string"
            },
            {
              "internalType": "uint256",
              "name": "cost",
              "type": "uint256"
            },
            {
              "internalType": "uint256",
              "name": "tickets",
              "type": "uint256"
            },
            {
              "internalType": "uint256",
              "name": "maxTickets",
              "type": "uint256"
            },
            {
              "internalType": "string",
              "name": "date",
              "type": "string"
            },
            {
              "internalType": "string",
              "name": "time",
              "type": "string"
            },
            {
              "internalType": "string",
              "name": "location",
              "type": "string"
            }
          ],
          "internalType": "struct TokenMaster.Occasion",
          "name": "",
          "type": "tuple"
        }
      ],
      "stateMutability": "view",
      "type": "function"
    },
    {
      "inputs": [
        {
          "internalType": "uint256",
          "name": "_id",
          "type": "uint256"
        }
      ],
      "name": "getSeatsTaken",
      "outputs": [
        {
          "internalType": "uint256[]",
          "name": "",
          "type": "uint256[]"
        }
      ],
      "stateMutability": "view",
      "type": "function"
    },
    {
      "inputs": [
        {
          "internalType": "uint256",
          "name": "",
          "type": "uint256"
        },
        {
          "internalType": "address",
          "name": "",
          "type": "address"
        }
      ],
      "name": "hasBought",
      "outputs": [
        {
          "internalType": "bool",
          "name": "",
          "type": "bool"
        }
      ],
      "stateMutability": "view",
      "type": "function"
    },
    {
      "inputs": [
        {
          "internalType": "address",
          "name": "owner",
          "type": "address"
        },
        {
          "internalType": "address",
          "name": "operator",
          "type": "address"
        }
      ],
      "name": "isApprovedForAll",
      "outputs": [
        {
          "internalType": "bool",
          "name": "",
          "type": "bool"
        }
      ],
      "stateMutability": "view",
      "type": "function"
    },
    {
      "inputs": [
        {
          "internalType": "string",
          "name": "_name",
          "type": "string"
        },
        {
          "internalType": "uint256",
          "name": "_cost",
          "type": "uint256"
        },
        {
          "internalType": "uint256",
          "name": "_maxTickets",
          "type": "uint256"
        },
        {
          "internalType": "string",
          "name": "_date",
          "type": "string"
        },
        {
          "internalType": "string",
          "name": "_time",
          "type": "string"
        },
        {
          "internalType": "string",
          "name": "_location",
          "type": "string"
        }
      ],
      "name": "list",
      "outputs": [],
      "stateMutability": "nonpayable",
      "type": "function"
    },
    {
      "inputs": [
        {
          "internalType": "uint256",
          "name": "_id",
          "type": "uint256"
        },
        {
          "internalType": "uint256",
          "name": "_seat",
          "type": "uint256"
        }
      ],
      "name": "mint",
      "outputs": [],
      "stateMutability": "payable",
      "type": "function"
    },
    {
      "inputs": [],
      "name": "name",
      "outputs": [
        {
          "internalType": "string",
          "name": "",
          "type": "string"
        }
      ],
      "stateMutability": "view",
      "type": "function"
    },
    {
      "inputs": [],
      "name": "owner",
      "outputs": [
        {
          "internalType": "address",
          "name": "",
          "type": "address"
        }
      ],
      "stateMutability": "view",
      "type": "function"
    },
    {
      "inputs": [
        {
          "internalType": "uint256",
          "name": "tokenId",
          "type": "uint256"
        }
      ],
      "name": "ownerOf",
      "outputs": [
        {
          "internalType": "address",
          "name": "",
          "type": "address"
        }
      ],
      "stateMutability": "view",
      "type": "function"
    },
    {
      "inputs": [
        {
          "internalType": "address",
          "name": "from",
          "type": "address"
        },
        {
          "internalType": "address",
          "name": "to",
          "type": "address"
        },
        {
          "internalType": "uint256",
          "name": "tokenId",
          "type": "uint256"
        }
      ],
      "name": "safeTransferFrom",
      "outputs": [],
      "stateMutability": "nonpayable",
      "type": "function"
    },
    {
      "inputs": [
        {
          "internalType": "address",
          "name": "from",
          "type": "address"
        },
        {
          "internalType": "address",
          "name": "to",
          "type": "address"
        },
        {
          "internalType": "uint256",
          "name": "tokenId",
          "type": "uint256"
        },
        {
          "internalType": "bytes",
          "name": "data",
          "type": "bytes"
        }
      ],
      "name": "safeTransferFrom",
      "outputs": [],
      "stateMutability": "nonpayable",
      "type": "function"
    },
    {
      "inputs": [
        {
          "internalType": "uint256",
          "name": "",
          "type": "uint256"
        },
        {
          "internalType": "uint256",
          "name": "",
          "type": "uint256"
        }
      ],
      "name": "seatTaken",
      "outputs": [
        {
          "internalType": "address",
          "name": "",
          "type": "address"
        }
      ],
      "stateMutability": "view",
      "type": "function"
    },
    {
      "inputs": [
        {
          "internalType": "address",
          "name": "operator",
          "type": "address"
        },
        {
          "internalType": "bool",
          "name": "approved",
          "type": "bool"
        }
      ],
      "name": "setApprovalForAll",
      "outputs": [],
      "stateMutability": "nonpayable",
      "type": "function"
    },
    {
      "inputs": [
        {
          "internalType": "bytes4",
          "name": "interfaceId",
          "type": "bytes4"
        }
      ],
      "name": "supportsInterface",
      "outputs": [
        {
          "internalType": "bool",
          "name": "",
          "type": "bool"
        }
      ],
      "stateMutability": "view",
      "type": "function"
    },
    {
      "inputs": [],
      "name": "symbol",
      "outputs": [
        {
          "internalType": "string",
          "name": "",
          "type": "string"
        }
      ],
      "stateMutability": "view",
      "type": "function"
    },
    {
      "inputs": [
        {
          "internalType": "uint256",
          "name": "tokenId",
          "type": "uint256"
        }
      ],
      "name": "tokenURI",
      "outputs": [
        {
          "internalType": "string",
          "name": "",
          "type": "string"
        }
      ],
      "stateMutability": "view",
      "type": "function"
    },
    {
      "inputs": [],
      "name": "totalOccasions",
      "outputs": [
        {
          "internalType": "uint256",
          "name": "",
          "type": "uint256"
        }
      ],
      "stateMutability": "view",
      "type": "function"
    },
    {
      "inputs": [],
      "name": "totalSupply",
      "outputs": [
        {
          "internalType": "uint256",
          "name": "",
          "type": "uint256"
        }
      ],
      "stateMutability": "view",
      "type": "function"
    },
    {
      "inputs": [
        {
          "internalType": "address",
          "name": "from",
          "type": "address"
        },
        {
          "internalType": "address",
          "name": "to",
          "type": "address"
        },
        {
          "internalType": "uint256",
          "name": "tokenId",
          "type": "uint256"
        }
      ],
      "name": "transferFrom",
      "outputs": [],
      "stateMutability": "nonpayable",
      "type": "function"
    },
    {
      "inputs": [
        {
          "internalType": "uint256",
          "name": "_id",
          "type": "uint256"
        },
        {
          "internalType": "uint256",
          "name": "_seat",
          "type": "uint256"
        },
        {
          "internalType": "address",
          "name": "_newOwner",
          "type": "address"
        }
      ],
      "name": "updateSeatOwner",
      "outputs": [],
      "stateMutability": "nonpayable",
      "type": "function"
    },
    {
      "inputs": [],
      "name": "withdraw",
      "outputs": [],
      "stateMutability": "nonpayable",
      "type": "function"
    }
  ],
  "bytecode": "0x60806040523480156200001157600080fd5b50604051620040673803806200406783398181016040528101906200003791906200023b565b818181600090816200004a91906200050b565b5080600190816200005c91906200050b565b50505033600660006101000a81548173ffffffffffffffffffffffffffffffffffffffff021916908373ffffffffffffffffffffffffffffffffffffffff1602179055505050620005f2565b6000604051905090565b600080fd5b600080fd5b600080fd5b600080fd5b6000601f19601f8301169050919050565b7f4e487b7100000000000000000000000000000000000000000000000000000000600052604160045260246000fd5b6200011182620000c6565b810181811067ffffffffffffffff82111715620001335762000132620000d7565b5b80604052505050565b600062000148620000a8565b905062000156828262000106565b919050565b600067ffffffffffffffff821115620001795762000178620000d7565b5b6200018482620000c6565b9050602081019050919050565b60005b83811015620001b157808201518184015260208101905062000194565b60008484015250505050565b6000620001d4620001ce846200015b565b6200013c565b905082815260208101848484011115620001f357620001f2620000c1565b5b6200020084828562000191565b509392505050565b600082601f83011262000220576200021f620000bc565b5b815162000232848260208601620001bd565b91505092915050565b60008060408385031215620002555762000254620000b2565b5b600083015167ffffffffffffffff811115620002765762000275620000b7565b5b620002848582860162000208565b925050602083015167ffffffffffffffff811115620002a857620002a7620000b7565b5b620002b68582860162000208565b9150509250929050565b600081519050919050565b7f4e487b7100000000000000000000000000000000000000000000000000000000600052602260045260246000fd5b600060028204905060018216806200031357607f821691505b602082108103620003295762000328620002cb565b5b50919050565b60008190508160005260206000209050919050565b60006020601f8301049050919050565b600082821b905092915050565b600060088302620003937fffffffffffffffffffffffffffffffffffffffffffffffffffffffffffffffff8262000354565b6200039f868362000354565b95508019841693508086168417925050509392505050565b6000819050919050565b6000819050919050565b6000620003ec620003e6620003e084620003b7565b620003c1565b620003b7565b9050919050565b6000819050919050565b6200040883620003cb565b620004206200041782620003f3565b84845462000361565b825550505050565b600090565b6200043762000428565b62000444818484620003fd565b505050565b5b818110156200046c57620004606000826200042d565b6001810190506200044a565b5050565b601f821115620004bb5762000485816200032f565b620004908462000344565b81016020851015620004a0578190505b620004b8620004af8562000344565b83018262000449565b50505b505050565b600082821c905092915050565b6000620004e060001984600802620004c0565b1980831691505092915050565b6000620004fb8383620004cd565b9150826002028217905092915050565b6200051682620002c0565b67ffffffffffffffff811115620005325762000531620000d7565b5b6200053e8254620002fa565b6200054b82828562000470565b600060209050601f8311600181146200058357600084156200056e578287015190505b6200057a8582620004ed565b865550620005ea565b601f19841662000593866200032f565b60005b82811015620005bd5784890151825560018201915060208501945060208101905062000596565b86831015620005dd5784890151620005d9601f891682620004cd565b8355505b6001600288020188555050505b505050505050565b613a6580620006026000396000f3fe60806040526004361061014b5760003560e01c806370a08231116100b65780639cb04aef1161006f5780639cb04aef14610495578063a22cb465146104d2578063af296da1146104fb578063b88d4fde14610538578063c87b56dd14610561578063e985e9c51461059e5761014b565b806370a082311461037157806374bc8656146103ae5780638da5cb5b146103eb578063953865c11461041657806395d89b41146104415780639a382f0f1461046c5761014b565b80631b2ef1ca116101085780631b2ef1ca1461028657806323b872dd146102a25780633ccfd60b146102cb57806342842e0e146102e25780634937532c1461030b5780636352211e146103345761014b565b806301ffc9a71461015057806306fdde031461018d578063081812fc146101b8578063095ea7b3146101f55780630ef7ec741461021e57806318160ddd1461025b575b600080fd5b34801561015c57600080fd5b5061017760048036038101906101729190612504565b6105db565b604051610184919061254c565b60405180910390f35b34801561019957600080fd5b506101a26106bd565b6040516101af91906125f7565b60405180910390f35b3480156101c457600080fd5b506101df60048036038101906101da919061264f565b61074f565b6040516101ec91906126bd565b60405180910390f35b34801561020157600080fd5b5061021c60048036038101906102179190612704565b610795565b005b34801561022a57600080fd5b506102456004803603810190610240919061264f565b6108ac565b6040516102529190612802565b60405180910390f35b34801561026757600080fd5b50610270610917565b60405161027d9190612833565b60405180910390f35b6102a0600480360381019061029b919061284e565b61091d565b005b3480156102ae57600080fd5b506102c960048036038101906102c4919061288e565b610b58565b005b3480156102d757600080fd5b506102e0610bb8565b005b3480156102ee57600080fd5b506103096004803603810190610304919061288e565b610cad565b005b34801561031757600080fd5b50610332600480360381019061032d91906128e1565b610ccd565b005b34801561034057600080fd5b5061035b6004803603810190610356919061264f565b610eb9565b60405161036891906126bd565b60405180910390f35b34801561037d57600080fd5b5061039860048036038101906103939190612934565b610f3f565b6040516103a59190612833565b60405180910390f35b3480156103ba57600080fd5b506103d560048036038101906103d0919061264f565b610ff6565b6040516103e29190612a70565b60405180910390f35b3480156103f757600080fd5b50610400611294565b60405161040d91906126bd565b60405180910390f35b34801561042257600080fd5b5061042b6112ba565b6040516104389190612833565b60405180910390f35b34801561044d57600080fd5b506104566112c0565b60405161046391906125f7565b60405180910390f35b34801561047857600080fd5b50610493600480360381019061048e9190612bc7565b611352565b005b3480156104a157600080fd5b506104bc60048036038101906104b79190612cc4565b6114a0565b6040516104c9919061254c565b60405180910390f35b3480156104de57600080fd5b506104f960048036038101906104f49190612d30565b6114cf565b005b34801561050757600080fd5b50610522600480360381019061051d919061284e565b6114e5565b60405161052f91906126bd565b60405180910390f35b34801561054457600080fd5b5061055f600480360381019061055a9190612e11565b611527565b005b34801561056d57600080fd5b506105886004803603810190610583919061264f565b611589565b60405161059591906125f7565b60405180910390f35b3480156105aa57600080fd5b506105c560048036038101906105c09190612e94565b6115f1565b6040516105d2919061254c565b60405180910390f35b60007f80ac58cd000000000000000000000000000000000000000000000000000000007bffffffffffffffffffffffffffffffffffffffffffffffffffffffff1916827bffffffffffffffffffffffffffffffffffffffffffffffffffffffff191614806106a657507f5b5e139f000000000000000000000000000000000000000000000000000000007bffffffffffffffffffffffffffffffffffffffffffffffffffffffff1916827bffffffffffffffffffffffffffffffffffffffffffffffffffffffff1916145b806106b657506106b582611685565b5b9050919050565b6060600080546106cc90612f03565b80601f01602080910402602001604051908101604052809291908181526020018280546106f890612f03565b80156107455780601f1061071a57610100808354040283529160200191610745565b820191906000526020600020905b81548152906001019060200180831161072857829003601f168201915b5050505050905090565b600061075a826116ef565b6004600083815260200190815260200160002060009054906101000a900473ffffffffffffffffffffffffffffffffffffffff169050919050565b60006107a082610eb9565b90508073ffffffffffffffffffffffffffffffffffffffff168373ffffffffffffffffffffffffffffffffffffffff1603610810576040517f08c379a000000000000000000000000000000000000000000000000000000000815260040161080790612fa6565b60405180910390fd5b8073ffffffffffffffffffffffffffffffffffffffff1661082f61173a565b73ffffffffffffffffffffffffffffffffffffffff16148061085e575061085d8161085861173a565b6115f1565b5b61089d576040517f08c379a000000000000000000000000000000000000000000000000000000000815260040161089490613038565b60405180910390fd5b6108a78383611742565b505050565b6060600c600083815260200190815260200160002080548060200260200160405190810160405280929190818152602001828054801561090b57602002820191906000526020600020905b8154815260200190600101908083116108f7575b50505050509050919050565b60085481565b6000820361092a57600080fd5b60075482111561093957600080fd5b600960008381526020019081526020016000206002015434101561095c57600080fd5b600073ffffffffffffffffffffffffffffffffffffffff16600b6000848152602001908152602001600020600083815260200190815260200160002060009054906101000a900473ffffffffffffffffffffffffffffffffffffffff1673ffffffffffffffffffffffffffffffffffffffff16146109d957600080fd5b60096000838152602001908152602001600020600401548111156109fc57600080fd5b6001600960008481526020019081526020016000206003016000828254610a239190613087565b925050819055506001600a600084815260200190815260200160002060003373ffffffffffffffffffffffffffffffffffffffff1673ffffffffffffffffffffffffffffffffffffffff16815260200190815260200160002060006101000a81548160ff02191690831515021790555033600b6000848152602001908152602001600020600083815260200190815260200160002060006101000a81548173ffffffffffffffffffffffffffffffffffffffff021916908373ffffffffffffffffffffffffffffffffffffffff160217905550600c600083815260200190815260200160002081908060018154018082558091505060019003906000526020600020016000909190919091505560086000815480929190610b43906130bb565b9190505550610b54336008546117fb565b5050565b610b69610b6361173a565b82611819565b610ba8576040517f08c379a0000000000000000000000000000000000000000000000000000000008152600401610b9f90613175565b60405180910390fd5b610bb38383836118ae565b505050565b600660009054906101000a900473ffffffffffffffffffffffffffffffffffffffff1673ffffffffffffffffffffffffffffffffffffffff163373ffffffffffffffffffffffffffffffffffffffff1614610c1257600080fd5b6000600660009054906101000a900473ffffffffffffffffffffffffffffffffffffffff1673ffffffffffffffffffffffffffffffffffffffff1647604051610c5a906131c6565b60006040518083038185875af1925050503d8060008114610c97576040519150601f19603f3d011682016040523d82523d6000602084013e610c9c565b606091505b5050905080610caa57600080fd5b50565b610cc883838360405180602001604052806000815250611527565b505050565b3373ffffffffffffffffffffffffffffffffffffffff16600b6000858152602001908152602001600020600084815260200190815260200160002060009054906101000a900473ffffffffffffffffffffffffffffffffffffffff1673ffffffffffffffffffffffffffffffffffffffff1614610d7f576040517f08c379a0000000000000000000000000000000000000000000000000000000008152600401610d7690613227565b60405180910390fd5b80600b6000858152602001908152602001600020600084815260200190815260200160002060006101000a81548173ffffffffffffffffffffffffffffffffffffffff021916908373ffffffffffffffffffffffffffffffffffffffff1602179055506000600a600085815260200190815260200160002060003373ffffffffffffffffffffffffffffffffffffffff1673ffffffffffffffffffffffffffffffffffffffff16815260200190815260200160002060006101000a81548160ff0219169083151502179055506001600a600085815260200190815260200160002060008373ffffffffffffffffffffffffffffffffffffffff1673ffffffffffffffffffffffffffffffffffffffff16815260200190815260200160002060006101000a81548160ff021916908315150217905550505050565b600080610ec583611ba7565b9050600073ffffffffffffffffffffffffffffffffffffffff168173ffffffffffffffffffffffffffffffffffffffff1603610f36576040517f08c379a0000000000000000000000000000000000000000000000000000000008152600401610f2d90613293565b60405180910390fd5b80915050919050565b60008073ffffffffffffffffffffffffffffffffffffffff168273ffffffffffffffffffffffffffffffffffffffff1603610faf576040517f08c379a0000000000000000000000000000000000000000000000000000000008152600401610fa690613325565b60405180910390fd5b600360008373ffffffffffffffffffffffffffffffffffffffff1673ffffffffffffffffffffffffffffffffffffffff168152602001908152602001600020549050919050565b610ffe612453565b60096000838152602001908152602001600020604051806101000160405290816000820154815260200160018201805461103790612f03565b80601f016020809104026020016040519081016040528092919081815260200182805461106390612f03565b80156110b05780601f10611085576101008083540402835291602001916110b0565b820191906000526020600020905b81548152906001019060200180831161109357829003601f168201915b505050505081526020016002820154815260200160038201548152602001600482015481526020016005820180546110e790612f03565b80601f016020809104026020016040519081016040528092919081815260200182805461111390612f03565b80156111605780601f1061113557610100808354040283529160200191611160565b820191906000526020600020905b81548152906001019060200180831161114357829003601f168201915b5050505050815260200160068201805461117990612f03565b80601f01602080910402602001604051908101604052809291908181526020018280546111a590612f03565b80156111f25780601f106111c7576101008083540402835291602001916111f2565b820191906000526020600020905b8154815290600101906020018083116111d557829003601f168201915b5050505050815260200160078201805461120b90612f03565b80601f016020809104026020016040519081016040528092919081815260200182805461123790612f03565b80156112845780601f1061125957610100808354040283529160200191611284565b820191906000526020600020905b81548152906001019060200180831161126757829003601f168201915b5050505050815250509050919050565b600660009054906101000a900473ffffffffffffffffffffffffffffffffffffffff1681565b60075481565b6060600180546112cf90612f03565b80601f01602080910402602001604051908101604052809291908181526020018280546112fb90612f03565b80156113485780601f1061131d57610100808354040283529160200191611348565b820191906000526020600020905b81548152906001019060200180831161132b57829003601f168201915b5050505050905090565b600660009054906101000a900473ffffffffffffffffffffffffffffffffffffffff1673ffffffffffffffffffffffffffffffffffffffff163373ffffffffffffffffffffffffffffffffffffffff16146113ac57600080fd5b600760008154809291906113bf906130bb565b919050555060405180610100016040528060075481526020018781526020018681526020018581526020018581526020018481526020018381526020018281525060096000600754815260200190815260200160002060008201518160000155602082015181600101908161143491906134f1565b5060408201518160020155606082015181600301556080820151816004015560a082015181600501908161146891906134f1565b5060c082015181600601908161147e91906134f1565b5060e082015181600701908161149491906134f1565b50905050505050505050565b600a6020528160005260406000206020528060005260406000206000915091509054906101000a900460ff1681565b6114e16114da61173a565b8383611be4565b5050565b600b6020528160005260406000206020528060005260406000206000915091509054906101000a900473ffffffffffffffffffffffffffffffffffffffff1681565b61153861153261173a565b83611819565b611577576040517f08c379a000000000000000000000000000000000000000000000000000000000815260040161156e90613175565b60405180910390fd5b61158384848484611d50565b50505050565b6060611594826116ef565b600061159e611dac565b905060008151116115be57604051806020016040528060008152506115e9565b806115c884611dc3565b6040516020016115d99291906135ff565b6040516020818303038152906040525b915050919050565b6000600560008473ffffffffffffffffffffffffffffffffffffffff1673ffffffffffffffffffffffffffffffffffffffff16815260200190815260200160002060008373ffffffffffffffffffffffffffffffffffffffff1673ffffffffffffffffffffffffffffffffffffffff16815260200190815260200160002060009054906101000a900460ff16905092915050565b60007f01ffc9a7000000000000000000000000000000000000000000000000000000007bffffffffffffffffffffffffffffffffffffffffffffffffffffffff1916827bffffffffffffffffffffffffffffffffffffffffffffffffffffffff1916149050919050565b6116f881611e91565b611737576040517f08c379a000000000000000000000000000000000000000000000000000000000815260040161172e90613293565b60405180910390fd5b50565b600033905090565b816004600083815260200190815260200160002060006101000a81548173ffffffffffffffffffffffffffffffffffffffff021916908373ffffffffffffffffffffffffffffffffffffffff160217905550808273ffffffffffffffffffffffffffffffffffffffff166117b583610eb9565b73ffffffffffffffffffffffffffffffffffffffff167f8c5be1e5ebec7d5bd14f71427d1e84f3dd0314c0f7b2291e5b200ac8c7c3b92560405160405180910390a45050565b611815828260405180602001604052806000815250611ed2565b5050565b60008061182583610eb9565b90508073ffffffffffffffffffffffffffffffffffffffff168473ffffffffffffffffffffffffffffffffffffffff161480611867575061186681856115f1565b5b806118a557508373ffffffffffffffffffffffffffffffffffffffff1661188d8461074f565b73ffffffffffffffffffffffffffffffffffffffff16145b91505092915050565b8273ffffffffffffffffffffffffffffffffffffffff166118ce82610eb9565b73ffffffffffffffffffffffffffffffffffffffff1614611924576040517f08c379a000000000000000000000000000000000000000000000000000000000815260040161191b90613695565b60405180910390fd5b600073ffffffffffffffffffffffffffffffffffffffff168273ffffffffffffffffffffffffffffffffffffffff1603611993576040517f08c379a000000000000000000000000000000000000000000000000000000000815260040161198a90613727565b60405180910390fd5b6119a08383836001611f2d565b8273ffffffffffffffffffffffffffffffffffffffff166119c082610eb9565b73ffffffffffffffffffffffffffffffffffffffff1614611a16576040517f08c379a0000000000000000000000000000000000000000000000000000000008152600401611a0d90613695565b60405180910390fd5b6004600082815260200190815260200160002060006101000a81549073ffffffffffffffffffffffffffffffffffffffff02191690556001600360008573ffffffffffffffffffffffffffffffffffffffff1673ffffffffffffffffffffffffffffffffffffffff168152602001908152602001600020600082825403925050819055506001600360008473ffffffffffffffffffffffffffffffffffffffff1673ffffffffffffffffffffffffffffffffffffffff16815260200190815260200160002060008282540192505081905550816002600083815260200190815260200160002060006101000a81548173ffffffffffffffffffffffffffffffffffffffff021916908373ffffffffffffffffffffffffffffffffffffffff160217905550808273ffffffffffffffffffffffffffffffffffffffff168473ffffffffffffffffffffffffffffffffffffffff167fddf252ad1be2c89b69c2b068fc378daa952ba7f163c4a11628f55a4df523b3ef60405160405180910390a4611ba28383836001611f33565b505050565b60006002600083815260200190815260200160002060009054906101000a900473ffffffffffffffffffffffffffffffffffffffff169050919050565b8173ffffffffffffffffffffffffffffffffffffffff168373ffffffffffffffffffffffffffffffffffffffff1603611c52576040517f08c379a0000000000000000000000000000000000000000000000000000000008152600401611c4990613793565b60405180910390fd5b80600560008573ffffffffffffffffffffffffffffffffffffffff1673ffffffffffffffffffffffffffffffffffffffff16815260200190815260200160002060008473ffffffffffffffffffffffffffffffffffffffff1673ffffffffffffffffffffffffffffffffffffffff16815260200190815260200160002060006101000a81548160ff0219169083151502179055508173ffffffffffffffffffffffffffffffffffffffff168373ffffffffffffffffffffffffffffffffffffffff167f17307eab39ab6107e8899845ad3d59bd9653f200f220920489ca2b5937696c3183604051611d43919061254c565b60405180910390a3505050565b611d5b8484846118ae565b611d6784848484611f39565b611da6576040517f08c379a0000000000000000000000000000000000000000000000000000000008152600401611d9d90613825565b60405180910390fd5b50505050565b606060405180602001604052806000815250905090565b606060006001611dd2846120c0565b01905060008167ffffffffffffffff811115611df157611df0612a9c565b5b6040519080825280601f01601f191660200182016040528015611e235781602001600182028036833780820191505090505b509050600082602001820190505b600115611e86578080600190039150507f3031323334353637383961626364656600000000000000000000000000000000600a86061a8153600a8581611e7a57611e79613845565b5b04945060008503611e31575b819350505050919050565b60008073ffffffffffffffffffffffffffffffffffffffff16611eb383611ba7565b73ffffffffffffffffffffffffffffffffffffffff1614159050919050565b611edc8383612213565b611ee96000848484611f39565b611f28576040517f08c379a0000000000000000000000000000000000000000000000000000000008152600401611f1f90613825565b60405180910390fd5b505050565b50505050565b50505050565b6000611f5a8473ffffffffffffffffffffffffffffffffffffffff16612430565b156120b3578373ffffffffffffffffffffffffffffffffffffffff1663150b7a02611f8361173a565b8786866040518563ffffffff1660e01b8152600401611fa594939291906138c9565b6020604051808303816000875af1925050508015611fe157506040513d601f19601f82011682018060405250810190611fde919061392a565b60015b612063573d8060008114612011576040519150601f19603f3d011682016040523d82523d6000602084013e612016565b606091505b50600081510361205b576040517f08c379a000000000000000000000000000000000000000000000000000000000815260040161205290613825565b60405180910390fd5b805181602001fd5b63150b7a0260e01b7bffffffffffffffffffffffffffffffffffffffffffffffffffffffff1916817bffffffffffffffffffffffffffffffffffffffffffffffffffffffff1916149150506120b8565b600190505b949350505050565b600080600090507a184f03e93ff9f4daa797ed6e38ed64bf6a1f010000000000000000831061211e577a184f03e93ff9f4daa797ed6e38ed64bf6a1f010000000000000000838161211457612113613845565b5b0492506040810190505b6d04ee2d6d415b85acef8100000000831061215b576d04ee2d6d415b85acef8100000000838161215157612150613845565b5b0492506020810190505b662386f26fc10000831061218a57662386f26fc1000083816121805761217f613845565b5b0492506010810190505b6305f5e10083106121b3576305f5e10083816121a9576121a8613845565b5b0492506008810190505b61271083106121d85761271083816121ce576121cd613845565b5b0492506004810190505b606483106121fb57606483816121f1576121f0613845565b5b0492506002810190505b600a831061220a576001810190505b80915050919050565b600073ffffffffffffffffffffffffffffffffffffffff168273ffffffffffffffffffffffffffffffffffffffff1603612282576040517f08c379a0000000000000000000000000000000000000000000000000000000008152600401612279906139a3565b60405180910390fd5b61228b81611e91565b156122cb576040517f08c379a00000000000000000000000000000000000000000000000000000000081526004016122c290613a0f565b60405180910390fd5b6122d9600083836001611f2d565b6122e281611e91565b15612322576040517f08c379a000000000000000000000000000000000000000000000000000000000815260040161231990613a0f565b60405180910390fd5b6001600360008473ffffffffffffffffffffffffffffffffffffffff1673ffffffffffffffffffffffffffffffffffffffff16815260200190815260200160002060008282540192505081905550816002600083815260200190815260200160002060006101000a81548173ffffffffffffffffffffffffffffffffffffffff021916908373ffffffffffffffffffffffffffffffffffffffff160217905550808273ffffffffffffffffffffffffffffffffffffffff16600073ffffffffffffffffffffffffffffffffffffffff167fddf252ad1be2c89b69c2b068fc378daa952ba7f163c4a11628f55a4df523b3ef60405160405180910390a461242c600083836001611f33565b5050565b6000808273ffffffffffffffffffffffffffffffffffffffff163b119050919050565b60405180610100016040528060008152602001606081526020016000815260200160008152602001600081526020016060815260200160608152602001606081525090565b6000604051905090565b600080fd5b600080fd5b60007fffffffff0000000000000000000000000000000000000000000000000000000082169050919050565b6124e1816124ac565b81146124ec57600080fd5b50565b6000813590506124fe816124d8565b92915050565b60006020828403121561251a576125196124a2565b5b6000612528848285016124ef565b91505092915050565b60008115159050919050565b61254681612531565b82525050565b6000602082019050612561600083018461253d565b92915050565b600081519050919050565b600082825260208201905092915050565b60005b838110156125a1578082015181840152602081019050612586565b60008484015250505050565b6000601f19601f8301169050919050565b60006125c982612567565b6125d38185612572565b93506125e3818560208601612583565b6125ec816125ad565b840191505092915050565b6000602082019050818103600083015261261181846125be565b905092915050565b6000819050919050565b61262c81612619565b811461263757600080fd5b50565b60008135905061264981612623565b92915050565b600060208284031215612665576126646124a2565b5b60006126738482850161263a565b91505092915050565b600073ffffffffffffffffffffffffffffffffffffffff82169050919050565b60006126a78261267c565b9050919050565b6126b78161269c565b82525050565b60006020820190506126d260008301846126ae565b92915050565b6126e18161269c565b81146126ec57600080fd5b50565b6000813590506126fe816126d8565b92915050565b6000806040838503121561271b5761271a6124a2565b5b6000612729858286016126ef565b925050602061273a8582860161263a565b9150509250929050565b600081519050919050565b600082825260208201905092915050565b6000819050602082019050919050565b61277981612619565b82525050565b600061278b8383612770565b60208301905092915050565b6000602082019050919050565b60006127af82612744565b6127b9818561274f565b93506127c483612760565b8060005b838110156127f55781516127dc888261277f565b97506127e783612797565b9250506001810190506127c8565b5085935050505092915050565b6000602082019050818103600083015261281c81846127a4565b905092915050565b61282d81612619565b82525050565b60006020820190506128486000830184612824565b92915050565b60008060408385031215612865576128646124a2565b5b60006128738582860161263a565b92505060206128848582860161263a565b9150509250929050565b6000806000606084860312156128a7576128a66124a2565b5b60006128b5868287016126ef565b93505060206128c6868287016126ef565b92505060406128d78682870161263a565b9150509250925092565b6000806000606084860312156128fa576128f96124a2565b5b60006129088682870161263a565b93505060206129198682870161263a565b925050604061292a868287016126ef565b9150509250925092565b60006020828403121561294a576129496124a2565b5b6000612958848285016126ef565b91505092915050565b600082825260208201905092915050565b600061297d82612567565b6129878185612961565b9350612997818560208601612583565b6129a0816125ad565b840191505092915050565b6000610100830160008301516129c46000860182612770565b50602083015184820360208601526129dc8282612972565b91505060408301516129f16040860182612770565b506060830151612a046060860182612770565b506080830151612a176080860182612770565b5060a083015184820360a0860152612a2f8282612972565b91505060c083015184820360c0860152612a498282612972565b91505060e083015184820360e0860152612a638282612972565b9150508091505092915050565b60006020820190508181036000830152612a8a81846129ab565b905092915050565b600080fd5b600080fd5b7f4e487b7100000000000000000000000000000000000000000000000000000000600052604160045260246000fd5b612ad4826125ad565b810181811067ffffffffffffffff82111715612af357612af2612a9c565b5b80604052505050565b6000612b06612498565b9050612b128282612acb565b919050565b600067ffffffffffffffff821115612b3257612b31612a9c565b5b612b3b826125ad565b9050602081019050919050565b82818337600083830152505050565b6000612b6a612b6584612b17565b612afc565b905082815260208101848484011115612b8657612b85612a97565b5b612b91848285612b48565b509392505050565b600082601f830112612bae57612bad612a92565b5b8135612bbe848260208601612b57565b91505092915050565b60008060008060008060c08789031215612be457612be36124a2565b5b600087013567ffffffffffffffff811115612c0257612c016124a7565b5b612c0e89828a01612b99565b9650506020612c1f89828a0161263a565b9550506040612c3089828a0161263a565b945050606087013567ffffffffffffffff811115612c5157612c506124a7565b5b612c5d89828a01612b99565b935050608087013567ffffffffffffffff811115612c7e57612c7d6124a7565b5b612c8a89828a01612b99565b92505060a087013567ffffffffffffffff811115612cab57612caa6124a7565b5b612cb789828a01612b99565b9150509295509295509295565b60008060408385031215612cdb57612cda6124a2565b5b6000612ce98582860161263a565b9250506020612cfa858286016126ef565b9150509250929050565b612d0d81612531565b8114612d1857600080fd5b50565b600081359050612d2a81612d04565b92915050565b60008060408385031215612d4757612d466124a2565b5b6000612d55858286016126ef565b9250506020612d6685828601612d1b565b9150509250929050565b600067ffffffffffffffff821115612d8b57612d8a612a9c565b5b612d94826125ad565b9050602081019050919050565b6000612db4612daf84612d70565b612afc565b905082815260208101848484011115612dd057612dcf612a97565b5b612ddb848285612b48565b509392505050565b600082601f830112612df857612df7612a92565b5b8135612e08848260208601612da1565b91505092915050565b60008060008060808587031215612e2b57612e2a6124a2565b5b6000612e39878288016126ef565b9450506020612e4a878288016126ef565b9350506040612e5b8782880161263a565b925050606085013567ffffffffffffffff811115612e7c57612e7b6124a7565b5b612e8887828801612de3565b91505092959194509250565b60008060408385031215612eab57612eaa6124a2565b5b6000612eb9858286016126ef565b9250506020612eca858286016126ef565b9150509250929050565b7f4e487b7100000000000000000000000000000000000000000000000000000000600052602260045260246000fd5b60006002820490506001821680612f1b57607f821691505b602082108103612f2e57612f2d612ed4565b5b50919050565b7f4552433732313a20617070726f76616c20746f2063757272656e74206f776e6560008201527f7200000000000000000000000000000000000000000000000000000000000000602082015250565b6000612f90602183612572565b9150612f9b82612f34565b604082019050919050565b60006020820190508181036000830152612fbf81612f83565b9050919050565b7f4552433732313a20617070726f76652063616c6c6572206973206e6f7420746f60008201527f6b656e206f776e6572206f7220617070726f76656420666f7220616c6c000000602082015250565b6000613022603d83612572565b915061302d82612fc6565b604082019050919050565b6000602082019050818103600083015261305181613015565b9050919050565b7f4e487b7100000000000000000000000000000000000000000000000000000000600052601160045260246000fd5b600061309282612619565b915061309d83612619565b92508282039050818111156130b5576130b4613058565b5b92915050565b60006130c682612619565b91507fffffffffffffffffffffffffffffffffffffffffffffffffffffffffffffffff82036130f8576130f7613058565b5b600182019050919050565b7f4552433732313a2063616c6c6572206973206e6f7420746f6b656e206f776e6560008201527f72206f7220617070726f76656400000000000000000000000000000000000000602082015250565b600061315f602d83612572565b915061316a82613103565b604082019050919050565b6000602082019050818103600083015261318e81613152565b9050919050565b600081905092915050565b50565b60006131b0600083613195565b91506131bb826131a0565b600082019050919050565b60006131d1826131a3565b9150819050919050565b7f596f7520646f206e6f74206f776e207468697320736561740000000000000000600082015250565b6000613211601883612572565b915061321c826131db565b602082019050919050565b6000602082019050818103600083015261324081613204565b9050919050565b7f4552433732313a20696e76616c696420746f6b656e2049440000000000000000600082015250565b600061327d601883612572565b915061328882613247565b602082019050919050565b600060208201905081810360008301526132ac81613270565b9050919050565b7f4552433732313a2061646472657373207a65726f206973206e6f74206120766160008201527f6c6964206f776e65720000000000000000000000000000000000000000000000602082015250565b600061330f602983612572565b915061331a826132b3565b604082019050919050565b6000602082019050818103600083015261333e81613302565b9050919050565b60008190508160005260206000209050919050565b60006020601f8301049050919050565b600082821b905092915050565b6000600883026133a77fffffffffffffffffffffffffffffffffffffffffffffffffffffffffffffffff8261336a565b6133b1868361336a565b95508019841693508086168417925050509392505050565b6000819050919050565b60006133ee6133e96133e484612619565b6133c9565b612619565b9050919050565b6000819050919050565b613408836133d3565b61341c613414826133f5565b848454613377565b825550505050565b600090565b613431613424565b61343c8184846133ff565b505050565b5b8181101561346057613455600082613429565b600181019050613442565b5050565b601f8211156134a55761347681613345565b61347f8461335a565b8101602085101561348e578190505b6134a261349a8561335a565b830182613441565b50505b505050565b600082821c905092915050565b60006134c8600019846008026134aa565b1980831691505092915050565b60006134e183836134b7565b9150826002028217905092915050565b6134fa82612567565b67ffffffffffffffff81111561351357613512612a9c565b5b61351d8254612f03565b613528828285613464565b600060209050601f83116001811461355b5760008415613549578287015190505b61355385826134d5565b8655506135bb565b601f19841661356986613345565b60005b828110156135915784890151825560018201915060208501945060208101905061356c565b868310156135ae57848901516135aa601f8916826134b7565b8355505b6001600288020188555050505b505050505050565b600081905092915050565b60006135d982612567565b6135e381856135c3565b93506135f3818560208601612583565b80840191505092915050565b600061360b82856135ce565b915061361782846135ce565b91508190509392505050565b7f4552433732313a207472616e736665722066726f6d20696e636f72726563742060008201527f6f776e6572000000000000000000000000000000000000000000000000000000602082015250565b600061367f602583612572565b915061368a82613623565b604082019050919050565b600060208201905081810360008301526136ae81613672565b9050919050565b7f4552433732313a207472616e7366657220746f20746865207a65726f2061646460008201527f7265737300000000000000000000000000000000000000000000000000000000602082015250565b6000613711602483612572565b915061371c826136b5565b604082019050919050565b6000602082019050818103600083015261374081613704565b9050919050565b7f4552433732313a20617070726f766520746f2063616c6c657200000000000000600082015250565b600061377d601983612572565b915061378882613747565b602082019050919050565b600060208201905081810360008301526137ac81613770565b9050919050565b7f4552433732313a207472616e7366657220746f206e6f6e20455243373231526560008201527f63656976657220696d706c656d656e7465720000000000000000000000000000602082015250565b600061380f603283612572565b915061381a826137b3565b604082019050919050565b6000602082019050818103600083015261383e81613802565b9050919050565b7f4e487b7100000000000000000000000000000000000000000000000000000000600052601260045260246000fd5b600081519050919050565b600082825260208201905092915050565b600061389b82613874565b6138a5818561387f565b93506138b5818560208601612583565b6138be816125ad565b840191505092915050565b60006080820190506138de60008301876126ae565b6138eb60208301866126ae565b6138f86040830185612824565b818103606083015261390a8184613890565b905095945050505050565b600081519050613924816124d8565b92915050565b6000602082840312156139405761393f6124a2565b5b600061394e84828501613915565b91505092915050565b7f4552433732313a206d696e7420746f20746865207a65726f2061646472657373600082015250565b600061398d602083612572565b915061399882613957565b602082019050919050565b600060208201905081810360008301526139bc81613980565b9050919050565b7f4552433732313a20746f6b656e20616c7265616479206d696e74656400000000600082015250565b60006139f9601c83612572565b9150613a04826139c3565b602082019050919050565b60006020820190508181036000830152613a28816139ec565b905091905056fea26469706673582212201a63ab07c1d279584bea499be0d327f70fee04b13917cbb4b993a71d2d18495a64736f6c63430008110033",
  "linkReferences": {},
  "deployedLinkReferences": {}
}