{
  "_format": "hh-sol-artifact-1",
  "contractName": "TokenMaster",
  "sourceName": "contracts/TokenMaster.sol",
  "abi": [
    {
      "inputs": [
        {
          "internalType": "string",
          "name": "_name",
          "type": "string"
        },
        {
          "internalType": "string",
          "name": "_symbol",
          "type": "string"
        }
      ],
      "stateMutability": "nonpayable",
      "type": "constructor"
    },
    {
      "anonymous": false,
      "inputs": [
        {
          "indexed": true,
          "internalType": "address",
          "name": "owner",
          "type": "address"
        },
        {
          "indexed": true,
          "internalType": "address",
          "name": "approved",
          "type": "address"
        },
        {
          "indexed": true,
          "internalType": "uint256",
          "name": "tokenId",
          "type": "uint256"
        }
      ],
      "name": "Approval",
      "type": "event"
    },
    {
      "anonymous": false,
      "inputs": [
        {
          "indexed": true,
          "internalType": "address",
          "name": "owner",
          "type": "address"
        },
        {
          "indexed": true,
          "internalType": "address",
          "name": "operator",
          "type": "address"
        },
        {
          "indexed": false,
          "internalType": "bool",
          "name": "approved",
          "type": "bool"
        }
      ],
      "name": "ApprovalForAll",
      "type": "event"
    },
    {
      "anonymous": false,
      "inputs": [
        {
          "indexed": true,
          "internalType": "address",
          "name": "from",
          "type": "address"
        },
        {
          "indexed": true,
          "internalType": "address",
          "name": "to",
          "type": "address"
        },
        {
          "indexed": true,
          "internalType": "uint256",
          "name": "tokenId",
          "type": "uint256"
        }
      ],
      "name": "Transfer",
      "type": "event"
    },
    {
      "inputs": [
        {
          "internalType": "address",
          "name": "to",
          "type": "address"
        },
        {
          "internalType": "uint256",
          "name": "tokenId",
          "type": "uint256"
        }
      ],
      "name": "approve",
      "outputs": [],
      "stateMutability": "nonpayable",
      "type": "function"
    },
    {
      "inputs": [
        {
          "internalType": "address",
          "name": "owner",
          "type": "address"
        }
      ],
      "name": "balanceOf",
      "outputs": [
        {
          "internalType": "uint256",
          "name": "",
          "type": "uint256"
        }
      ],
      "stateMutability": "view",
      "type": "function"
    },
    {
      "inputs": [
        {
          "internalType": "uint256",
          "name": "tokenId",
          "type": "uint256"
        }
      ],
      "name": "getApproved",
      "outputs": [
        {
          "internalType": "address",
          "name": "",
          "type": "address"
        }
      ],
      "stateMutability": "view",
      "type": "function"
    },
    {
      "inputs": [
        {
          "internalType": "uint256",
          "name": "_id",
          "type": "uint256"
        }
      ],
      "name": "getOccasion",
      "outputs": [
        {
          "components": [
            {
              "internalType": "uint256",
              "name": "id",
              "type": "uint256"
            },
            {
              "internalType": "string",
              "name": "name",
              "type": "string"
            },
            {
              "internalType": "uint256",
              "name": "cost",
              "type": "uint256"
            },
            {
              "internalType": "uint256",
              "name": "tickets",
              "type": "uint256"
            },
            {
              "internalType": "uint256",
              "name": "maxTickets",
              "type": "uint256"
            },
            {
              "internalType": "string",
              "name": "date",
              "type": "string"
            },
            {
              "internalType": "string",
              "name": "time",
              "type": "string"
            },
            {
              "internalType": "string",
              "name": "location",
              "type": "string"
            }
          ],
          "internalType": "struct TokenMaster.Occasion",
          "name": "",
          "type": "tuple"
        }
      ],
      "stateMutability": "view",
      "type": "function"
    },
    {
      "inputs": [
        {
          "internalType": "uint256",
          "name": "_id",
          "type": "uint256"
        }
      ],
      "name": "getSeatsTaken",
      "outputs": [
        {
          "internalType": "uint256[]",
          "name": "",
          "type": "uint256[]"
        }
      ],
      "stateMutability": "view",
      "type": "function"
    },
    {
      "inputs": [
        {
          "internalType": "uint256",
          "name": "",
          "type": "uint256"
        },
        {
          "internalType": "address",
          "name": "",
          "type": "address"
        }
      ],
      "name": "hasBought",
      "outputs": [
        {
          "internalType": "bool",
          "name": "",
          "type": "bool"
        }
      ],
      "stateMutability": "view",
      "type": "function"
    },
    {
      "inputs": [
        {
          "internalType": "address",
          "name": "owner",
          "type": "address"
        },
        {
          "internalType": "address",
          "name": "operator",
          "type": "address"
        }
      ],
      "name": "isApprovedForAll",
      "outputs": [
        {
          "internalType": "bool",
          "name": "",
          "type": "bool"
        }
      ],
      "stateMutability": "view",
      "type": "function"
    },
    {
      "inputs": [
        {
          "internalType": "string",
          "name": "_name",
          "type": "string"
        },
        {
          "internalType": "uint256",
          "name": "_cost",
          "type": "uint256"
        },
        {
          "internalType": "uint256",
          "name": "_maxTickets",
          "type": "uint256"
        },
        {
          "internalType": "string",
          "name": "_date",
          "type": "string"
        },
        {
          "internalType": "string",
          "name": "_time",
          "type": "string"
        },
        {
          "internalType": "string",
          "name": "_location",
          "type": "string"
        }
      ],
      "name": "list",
      "outputs": [],
      "stateMutability": "nonpayable",
      "type": "function"
    },
    {
      "inputs": [
        {
          "internalType": "uint256",
          "name": "_id",
          "type": "uint256"
        },
        {
          "internalType": "uint256",
          "name": "_seat",
          "type": "uint256"
        }
      ],
      "name": "mint",
      "outputs": [],
      "stateMutability": "payable",
      "type": "function"
    },
    {
      "inputs": [],
      "name": "name",
      "outputs": [
        {
          "internalType": "string",
          "name": "",
          "type": "string"
        }
      ],
      "stateMutability": "view",
      "type": "function"
    },
    {
      "inputs": [],
      "name": "owner",
      "outputs": [
        {
          "internalType": "address",
          "name": "",
          "type": "address"
        }
      ],
      "stateMutability": "view",
      "type": "function"
    },
    {
      "inputs": [
        {
          "internalType": "uint256",
          "name": "tokenId",
          "type": "uint256"
        }
      ],
      "name": "ownerOf",
      "outputs": [
        {
          "internalType": "address",
          "name": "",
          "type": "address"
        }
      ],
      "stateMutability": "view",
      "type": "function"
    },
    {
      "inputs": [
        {
          "internalType": "uint256",
          "name": "_id",
          "type": "uint256"
        },
        {
          "internalType": "uint256",
          "name": "_seat",
          "type": "uint256"
        },
        {
          "internalType": "address",
          "name": "_to",
          "type": "address"
        }
      ],
      "name": "resellTicket",
      "outputs": [],
      "stateMutability": "nonpayable",
      "type": "function"
    },
    {
      "inputs": [
        {
          "internalType": "address",
          "name": "from",
          "type": "address"
        },
        {
          "internalType": "address",
          "name": "to",
          "type": "address"
        },
        {
          "internalType": "uint256",
          "name": "tokenId",
          "type": "uint256"
        }
      ],
      "name": "safeTransferFrom",
      "outputs": [],
      "stateMutability": "nonpayable",
      "type": "function"
    },
    {
      "inputs": [
        {
          "internalType": "address",
          "name": "from",
          "type": "address"
        },
        {
          "internalType": "address",
          "name": "to",
          "type": "address"
        },
        {
          "internalType": "uint256",
          "name": "tokenId",
          "type": "uint256"
        },
        {
          "internalType": "bytes",
          "name": "data",
          "type": "bytes"
        }
      ],
      "name": "safeTransferFrom",
      "outputs": [],
      "stateMutability": "nonpayable",
      "type": "function"
    },
    {
      "inputs": [
        {
          "internalType": "uint256",
          "name": "",
          "type": "uint256"
        },
        {
          "internalType": "uint256",
          "name": "",
          "type": "uint256"
        }
      ],
      "name": "seatTaken",
      "outputs": [
        {
          "internalType": "address",
          "name": "",
          "type": "address"
        }
      ],
      "stateMutability": "view",
      "type": "function"
    },
    {
      "inputs": [
        {
          "internalType": "uint256",
          "name": "",
          "type": "uint256"
        },
        {
          "internalType": "uint256",
          "name": "",
          "type": "uint256"
        }
      ],
      "name": "seatToToken",
      "outputs": [
        {
          "internalType": "uint256",
          "name": "",
          "type": "uint256"
        }
      ],
      "stateMutability": "view",
      "type": "function"
    },
    {
      "inputs": [
        {
          "internalType": "address",
          "name": "operator",
          "type": "address"
        },
        {
          "internalType": "bool",
          "name": "approved",
          "type": "bool"
        }
      ],
      "name": "setApprovalForAll",
      "outputs": [],
      "stateMutability": "nonpayable",
      "type": "function"
    },
    {
      "inputs": [
        {
          "internalType": "bytes4",
          "name": "interfaceId",
          "type": "bytes4"
        }
      ],
      "name": "supportsInterface",
      "outputs": [
        {
          "internalType": "bool",
          "name": "",
          "type": "bool"
        }
      ],
      "stateMutability": "view",
      "type": "function"
    },
    {
      "inputs": [],
      "name": "symbol",
      "outputs": [
        {
          "internalType": "string",
          "name": "",
          "type": "string"
        }
      ],
      "stateMutability": "view",
      "type": "function"
    },
    {
      "inputs": [
        {
          "internalType": "uint256",
          "name": "tokenId",
          "type": "uint256"
        }
      ],
      "name": "tokenURI",
      "outputs": [
        {
          "internalType": "string",
          "name": "",
          "type": "string"
        }
      ],
      "stateMutability": "view",
      "type": "function"
    },
    {
      "inputs": [],
      "name": "totalOccasions",
      "outputs": [
        {
          "internalType": "uint256",
          "name": "",
          "type": "uint256"
        }
      ],
      "stateMutability": "view",
      "type": "function"
    },
    {
      "inputs": [],
      "name": "totalSupply",
      "outputs": [
        {
          "internalType": "uint256",
          "name": "",
          "type": "uint256"
        }
      ],
      "stateMutability": "view",
      "type": "function"
    },
    {
      "inputs": [
        {
          "internalType": "address",
          "name": "from",
          "type": "address"
        },
        {
          "internalType": "address",
          "name": "to",
          "type": "address"
        },
        {
          "internalType": "uint256",
          "name": "tokenId",
          "type": "uint256"
        }
      ],
      "name": "transferFrom",
      "outputs": [],
      "stateMutability": "nonpayable",
      "type": "function"
    },
    {
      "inputs": [],
      "name": "withdraw",
      "outputs": [],
      "stateMutability": "nonpayable",
      "type": "function"
    }
  ],
  "bytecode": "0x60806040523480156200001157600080fd5b50604051620044133803806200441383398181016040528101906200003791906200023b565b818181600090816200004a91906200050b565b5080600190816200005c91906200050b565b50505033600660006101000a81548173ffffffffffffffffffffffffffffffffffffffff021916908373ffffffffffffffffffffffffffffffffffffffff1602179055505050620005f2565b6000604051905090565b600080fd5b600080fd5b600080fd5b600080fd5b6000601f19601f8301169050919050565b7f4e487b7100000000000000000000000000000000000000000000000000000000600052604160045260246000fd5b6200011182620000c6565b810181811067ffffffffffffffff82111715620001335762000132620000d7565b5b80604052505050565b600062000148620000a8565b905062000156828262000106565b919050565b600067ffffffffffffffff821115620001795762000178620000d7565b5b6200018482620000c6565b9050602081019050919050565b60005b83811015620001b157808201518184015260208101905062000194565b60008484015250505050565b6000620001d4620001ce846200015b565b6200013c565b905082815260208101848484011115620001f357620001f2620000c1565b5b6200020084828562000191565b509392505050565b600082601f83011262000220576200021f620000bc565b5b815162000232848260208601620001bd565b91505092915050565b60008060408385031215620002555762000254620000b2565b5b600083015167ffffffffffffffff811115620002765762000275620000b7565b5b620002848582860162000208565b925050602083015167ffffffffffffffff811115620002a857620002a7620000b7565b5b620002b68582860162000208565b9150509250929050565b600081519050919050565b7f4e487b7100000000000000000000000000000000000000000000000000000000600052602260045260246000fd5b600060028204905060018216806200031357607f821691505b602082108103620003295762000328620002cb565b5b50919050565b60008190508160005260206000209050919050565b60006020601f8301049050919050565b600082821b905092915050565b600060088302620003937fffffffffffffffffffffffffffffffffffffffffffffffffffffffffffffffff8262000354565b6200039f868362000354565b95508019841693508086168417925050509392505050565b6000819050919050565b6000819050919050565b6000620003ec620003e6620003e084620003b7565b620003c1565b620003b7565b9050919050565b6000819050919050565b6200040883620003cb565b620004206200041782620003f3565b84845462000361565b825550505050565b600090565b6200043762000428565b62000444818484620003fd565b505050565b5b818110156200046c57620004606000826200042d565b6001810190506200044a565b5050565b601f821115620004bb5762000485816200032f565b620004908462000344565b81016020851015620004a0578190505b620004b8620004af8562000344565b83018262000449565b50505b505050565b600082821c905092915050565b6000620004e060001984600802620004c0565b1980831691505092915050565b6000620004fb8383620004cd565b9150826002028217905092915050565b6200051682620002c0565b67ffffffffffffffff811115620005325762000531620000d7565b5b6200053e8254620002fa565b6200054b82828562000470565b600060209050601f8311600181146200058357600084156200056e578287015190505b6200057a8582620004ed565b865550620005ea565b601f19841662000593866200032f565b60005b82811015620005bd5784890151825560018201915060208501945060208101905062000596565b86831015620005dd5784890151620005d9601f891682620004cd565b8355505b6001600288020188555050505b505050505050565b613e1180620006026000396000f3fe6080604052600436106101665760003560e01c806370a08231116100d15780639cb04aef1161008a578063b88d4fde11610064578063b88d4fde14610567578063c87b56dd14610590578063e985e9c5146105cd578063ff4a181a1461060a57610166565b80639cb04aef146104c4578063a22cb46514610501578063af296da11461052a57610166565b806370a08231146103a057806374bc8656146103dd5780638da5cb5b1461041a578063953865c11461044557806395d89b41146104705780639a382f0f1461049b57610166565b80631b2ef1ca116101235780631b2ef1ca146102a157806323b872dd146102bd5780633ccfd60b146102e65780633d8e2d66146102fd57806342842e0e1461033a5780636352211e1461036357610166565b806301ffc9a71461016b57806306fdde03146101a8578063081812fc146101d3578063095ea7b3146102105780630ef7ec741461023957806318160ddd14610276575b600080fd5b34801561017757600080fd5b50610192600480360381019061018d9190612746565b610633565b60405161019f919061278e565b60405180910390f35b3480156101b457600080fd5b506101bd610715565b6040516101ca9190612839565b60405180910390f35b3480156101df57600080fd5b506101fa60048036038101906101f59190612891565b6107a7565b60405161020791906128ff565b60405180910390f35b34801561021c57600080fd5b5061023760048036038101906102329190612946565b6107ed565b005b34801561024557600080fd5b50610260600480360381019061025b9190612891565b610904565b60405161026d9190612a44565b60405180910390f35b34801561028257600080fd5b5061028b61096f565b6040516102989190612a75565b60405180910390f35b6102bb60048036038101906102b69190612a90565b610975565b005b3480156102c957600080fd5b506102e460048036038101906102df9190612ad0565b610bdb565b005b3480156102f257600080fd5b506102fb610c3b565b005b34801561030957600080fd5b50610324600480360381019061031f9190612a90565b610d30565b6040516103319190612a75565b60405180910390f35b34801561034657600080fd5b50610361600480360381019061035c9190612ad0565b610d55565b005b34801561036f57600080fd5b5061038a60048036038101906103859190612891565b610d75565b60405161039791906128ff565b60405180910390f35b3480156103ac57600080fd5b506103c760048036038101906103c29190612b23565b610dfb565b6040516103d49190612a75565b60405180910390f35b3480156103e957600080fd5b5061040460048036038101906103ff9190612891565b610eb2565b6040516104119190612c5f565b60405180910390f35b34801561042657600080fd5b5061042f611150565b60405161043c91906128ff565b60405180910390f35b34801561045157600080fd5b5061045a611176565b6040516104679190612a75565b60405180910390f35b34801561047c57600080fd5b5061048561117c565b6040516104929190612839565b60405180910390f35b3480156104a757600080fd5b506104c260048036038101906104bd9190612db6565b61120e565b005b3480156104d057600080fd5b506104eb60048036038101906104e69190612eb3565b61135c565b6040516104f8919061278e565b60405180910390f35b34801561050d57600080fd5b5061052860048036038101906105239190612f1f565b61138b565b005b34801561053657600080fd5b50610551600480360381019061054c9190612a90565b6113a1565b60405161055e91906128ff565b60405180910390f35b34801561057357600080fd5b5061058e60048036038101906105899190613000565b6113e3565b005b34801561059c57600080fd5b506105b760048036038101906105b29190612891565b611445565b6040516105c49190612839565b60405180910390f35b3480156105d957600080fd5b506105f460048036038101906105ef9190613083565b6114ad565b604051610601919061278e565b60405180910390f35b34801561061657600080fd5b50610631600480360381019061062c91906130c3565b611541565b005b60007f80ac58cd000000000000000000000000000000000000000000000000000000007bffffffffffffffffffffffffffffffffffffffffffffffffffffffff1916827bffffffffffffffffffffffffffffffffffffffffffffffffffffffff191614806106fe57507f5b5e139f000000000000000000000000000000000000000000000000000000007bffffffffffffffffffffffffffffffffffffffffffffffffffffffff1916827bffffffffffffffffffffffffffffffffffffffffffffffffffffffff1916145b8061070e575061070d826118c7565b5b9050919050565b60606000805461072490613145565b80601f016020809104026020016040519081016040528092919081815260200182805461075090613145565b801561079d5780601f106107725761010080835404028352916020019161079d565b820191906000526020600020905b81548152906001019060200180831161078057829003601f168201915b5050505050905090565b60006107b282611931565b6004600083815260200190815260200160002060009054906101000a900473ffffffffffffffffffffffffffffffffffffffff169050919050565b60006107f882610d75565b90508073ffffffffffffffffffffffffffffffffffffffff168373ffffffffffffffffffffffffffffffffffffffff1603610868576040517f08c379a000000000000000000000000000000000000000000000000000000000815260040161085f906131e8565b60405180910390fd5b8073ffffffffffffffffffffffffffffffffffffffff1661088761197c565b73ffffffffffffffffffffffffffffffffffffffff1614806108b657506108b5816108b061197c565b6114ad565b5b6108f5576040517f08c379a00000000000000000000000000000000000000000000000000000000081526004016108ec9061327a565b60405180910390fd5b6108ff8383611984565b505050565b6060600d600083815260200190815260200160002080548060200260200160405190810160405280929190818152602001828054801561096357602002820191906000526020600020905b81548152602001906001019080831161094f575b50505050509050919050565b60085481565b6000820361098257600080fd5b60075482111561099157600080fd5b60096000838152602001908152602001600020600201543410156109b457600080fd5b600073ffffffffffffffffffffffffffffffffffffffff16600b6000848152602001908152602001600020600083815260200190815260200160002060009054906101000a900473ffffffffffffffffffffffffffffffffffffffff1673ffffffffffffffffffffffffffffffffffffffff1614610a3157600080fd5b6009600083815260200190815260200160002060040154811115610a5457600080fd5b6001600960008481526020019081526020016000206003016000828254610a7b91906132c9565b925050819055506001600a600084815260200190815260200160002060003373ffffffffffffffffffffffffffffffffffffffff1673ffffffffffffffffffffffffffffffffffffffff16815260200190815260200160002060006101000a81548160ff02191690831515021790555033600b6000848152602001908152602001600020600083815260200190815260200160002060006101000a81548173ffffffffffffffffffffffffffffffffffffffff021916908373ffffffffffffffffffffffffffffffffffffffff160217905550600d600083815260200190815260200160002081908060018154018082558091505060019003906000526020600020016000909190919091505560086000815480929190610b9b906132fd565b9190505550600854600c6000848152602001908152602001600020600083815260200190815260200160002081905550610bd733600854611a3d565b5050565b610bec610be661197c565b82611a5b565b610c2b576040517f08c379a0000000000000000000000000000000000000000000000000000000008152600401610c22906133b7565b60405180910390fd5b610c36838383611af0565b505050565b600660009054906101000a900473ffffffffffffffffffffffffffffffffffffffff1673ffffffffffffffffffffffffffffffffffffffff163373ffffffffffffffffffffffffffffffffffffffff1614610c9557600080fd5b6000600660009054906101000a900473ffffffffffffffffffffffffffffffffffffffff1673ffffffffffffffffffffffffffffffffffffffff1647604051610cdd90613408565b60006040518083038185875af1925050503d8060008114610d1a576040519150601f19603f3d011682016040523d82523d6000602084013e610d1f565b606091505b5050905080610d2d57600080fd5b50565b600c602052816000526040600020602052806000526040600020600091509150505481565b610d70838383604051806020016040528060008152506113e3565b505050565b600080610d8183611de9565b9050600073ffffffffffffffffffffffffffffffffffffffff168173ffffffffffffffffffffffffffffffffffffffff1603610df2576040517f08c379a0000000000000000000000000000000000000000000000000000000008152600401610de990613469565b60405180910390fd5b80915050919050565b60008073ffffffffffffffffffffffffffffffffffffffff168273ffffffffffffffffffffffffffffffffffffffff1603610e6b576040517f08c379a0000000000000000000000000000000000000000000000000000000008152600401610e62906134fb565b60405180910390fd5b600360008373ffffffffffffffffffffffffffffffffffffffff1673ffffffffffffffffffffffffffffffffffffffff168152602001908152602001600020549050919050565b610eba612695565b600960008381526020019081526020016000206040518061010001604052908160008201548152602001600182018054610ef390613145565b80601f0160208091040260200160405190810160405280929190818152602001828054610f1f90613145565b8015610f6c5780601f10610f4157610100808354040283529160200191610f6c565b820191906000526020600020905b815481529060010190602001808311610f4f57829003601f168201915b50505050508152602001600282015481526020016003820154815260200160048201548152602001600582018054610fa390613145565b80601f0160208091040260200160405190810160405280929190818152602001828054610fcf90613145565b801561101c5780601f10610ff15761010080835404028352916020019161101c565b820191906000526020600020905b815481529060010190602001808311610fff57829003601f168201915b5050505050815260200160068201805461103590613145565b80601f016020809104026020016040519081016040528092919081815260200182805461106190613145565b80156110ae5780601f10611083576101008083540402835291602001916110ae565b820191906000526020600020905b81548152906001019060200180831161109157829003601f168201915b505050505081526020016007820180546110c790613145565b80601f01602080910402602001604051908101604052809291908181526020018280546110f390613145565b80156111405780601f1061111557610100808354040283529160200191611140565b820191906000526020600020905b81548152906001019060200180831161112357829003601f168201915b5050505050815250509050919050565b600660009054906101000a900473ffffffffffffffffffffffffffffffffffffffff1681565b60075481565b60606001805461118b90613145565b80601f01602080910402602001604051908101604052809291908181526020018280546111b790613145565b80156112045780601f106111d957610100808354040283529160200191611204565b820191906000526020600020905b8154815290600101906020018083116111e757829003601f168201915b5050505050905090565b600660009054906101000a900473ffffffffffffffffffffffffffffffffffffffff1673ffffffffffffffffffffffffffffffffffffffff163373ffffffffffffffffffffffffffffffffffffffff161461126857600080fd5b6007600081548092919061127b906132fd565b91905055506040518061010001604052806007548152602001878152602001868152602001858152602001858152602001848152602001838152602001828152506009600060075481526020019081526020016000206000820151816000015560208201518160010190816112f091906136c7565b5060408201518160020155606082015181600301556080820151816004015560a082015181600501908161132491906136c7565b5060c082015181600601908161133a91906136c7565b5060e082015181600701908161135091906136c7565b50905050505050505050565b600a6020528160005260406000206020528060005260406000206000915091509054906101000a900460ff1681565b61139d61139661197c565b8383611e26565b5050565b600b6020528160005260406000206020528060005260406000206000915091509054906101000a900473ffffffffffffffffffffffffffffffffffffffff1681565b6113f46113ee61197c565b83611a5b565b611433576040517f08c379a000000000000000000000000000000000000000000000000000000000815260040161142a906133b7565b60405180910390fd5b61143f84848484611f92565b50505050565b606061145082611931565b600061145a611fee565b9050600081511161147a57604051806020016040528060008152506114a5565b8061148484612005565b6040516020016114959291906137d5565b6040516020818303038152906040525b915050919050565b6000600560008473ffffffffffffffffffffffffffffffffffffffff1673ffffffffffffffffffffffffffffffffffffffff16815260200190815260200160002060008373ffffffffffffffffffffffffffffffffffffffff1673ffffffffffffffffffffffffffffffffffffffff16815260200190815260200160002060009054906101000a900460ff16905092915050565b3373ffffffffffffffffffffffffffffffffffffffff16600b6000858152602001908152602001600020600084815260200190815260200160002060009054906101000a900473ffffffffffffffffffffffffffffffffffffffff1673ffffffffffffffffffffffffffffffffffffffff16146115f3576040517f08c379a00000000000000000000000000000000000000000000000000000000081526004016115ea90613845565b60405180910390fd5b600073ffffffffffffffffffffffffffffffffffffffff168173ffffffffffffffffffffffffffffffffffffffff1603611662576040517f08c379a0000000000000000000000000000000000000000000000000000000008152600401611659906138b1565b60405180910390fd5b600a600084815260200190815260200160002060008273ffffffffffffffffffffffffffffffffffffffff1673ffffffffffffffffffffffffffffffffffffffff16815260200190815260200160002060009054906101000a900460ff1615611700576040517f08c379a00000000000000000000000000000000000000000000000000000000081526004016116f790613943565b60405180910390fd5b6000600c60008581526020019081526020016000206000848152602001908152602001600020549050611732816120d3565b611771576040517f08c379a0000000000000000000000000000000000000000000000000000000008152600401611768906139af565b60405180910390fd5b81600b6000868152602001908152602001600020600085815260200190815260200160002060006101000a81548173ffffffffffffffffffffffffffffffffffffffff021916908373ffffffffffffffffffffffffffffffffffffffff1602179055506000600a600086815260200190815260200160002060003373ffffffffffffffffffffffffffffffffffffffff1673ffffffffffffffffffffffffffffffffffffffff16815260200190815260200160002060006101000a81548160ff0219169083151502179055506001600a600086815260200190815260200160002060008473ffffffffffffffffffffffffffffffffffffffff1673ffffffffffffffffffffffffffffffffffffffff16815260200190815260200160002060006101000a81548160ff0219169083151502179055506118c133838360405180602001604052806000815250611f92565b50505050565b60007f01ffc9a7000000000000000000000000000000000000000000000000000000007bffffffffffffffffffffffffffffffffffffffffffffffffffffffff1916827bffffffffffffffffffffffffffffffffffffffffffffffffffffffff1916149050919050565b61193a816120d3565b611979576040517f08c379a000000000000000000000000000000000000000000000000000000000815260040161197090613469565b60405180910390fd5b50565b600033905090565b816004600083815260200190815260200160002060006101000a81548173ffffffffffffffffffffffffffffffffffffffff021916908373ffffffffffffffffffffffffffffffffffffffff160217905550808273ffffffffffffffffffffffffffffffffffffffff166119f783610d75565b73ffffffffffffffffffffffffffffffffffffffff167f8c5be1e5ebec7d5bd14f71427d1e84f3dd0314c0f7b2291e5b200ac8c7c3b92560405160405180910390a45050565b611a57828260405180602001604052806000815250612114565b5050565b600080611a6783610d75565b90508073ffffffffffffffffffffffffffffffffffffffff168473ffffffffffffffffffffffffffffffffffffffff161480611aa95750611aa881856114ad565b5b80611ae757508373ffffffffffffffffffffffffffffffffffffffff16611acf846107a7565b73ffffffffffffffffffffffffffffffffffffffff16145b91505092915050565b8273ffffffffffffffffffffffffffffffffffffffff16611b1082610d75565b73ffffffffffffffffffffffffffffffffffffffff1614611b66576040517f08c379a0000000000000000000000000000000000000000000000000000000008152600401611b5d90613a41565b60405180910390fd5b600073ffffffffffffffffffffffffffffffffffffffff168273ffffffffffffffffffffffffffffffffffffffff1603611bd5576040517f08c379a0000000000000000000000000000000000000000000000000000000008152600401611bcc90613ad3565b60405180910390fd5b611be2838383600161216f565b8273ffffffffffffffffffffffffffffffffffffffff16611c0282610d75565b73ffffffffffffffffffffffffffffffffffffffff1614611c58576040517f08c379a0000000000000000000000000000000000000000000000000000000008152600401611c4f90613a41565b60405180910390fd5b6004600082815260200190815260200160002060006101000a81549073ffffffffffffffffffffffffffffffffffffffff02191690556001600360008573ffffffffffffffffffffffffffffffffffffffff1673ffffffffffffffffffffffffffffffffffffffff168152602001908152602001600020600082825403925050819055506001600360008473ffffffffffffffffffffffffffffffffffffffff1673ffffffffffffffffffffffffffffffffffffffff16815260200190815260200160002060008282540192505081905550816002600083815260200190815260200160002060006101000a81548173ffffffffffffffffffffffffffffffffffffffff021916908373ffffffffffffffffffffffffffffffffffffffff160217905550808273ffffffffffffffffffffffffffffffffffffffff168473ffffffffffffffffffffffffffffffffffffffff167fddf252ad1be2c89b69c2b068fc378daa952ba7f163c4a11628f55a4df523b3ef60405160405180910390a4611de48383836001612175565b505050565b60006002600083815260200190815260200160002060009054906101000a900473ffffffffffffffffffffffffffffffffffffffff169050919050565b8173ffffffffffffffffffffffffffffffffffffffff168373ffffffffffffffffffffffffffffffffffffffff1603611e94576040517f08c379a0000000000000000000000000000000000000000000000000000000008152600401611e8b90613b3f565b60405180910390fd5b80600560008573ffffffffffffffffffffffffffffffffffffffff1673ffffffffffffffffffffffffffffffffffffffff16815260200190815260200160002060008473ffffffffffffffffffffffffffffffffffffffff1673ffffffffffffffffffffffffffffffffffffffff16815260200190815260200160002060006101000a81548160ff0219169083151502179055508173ffffffffffffffffffffffffffffffffffffffff168373ffffffffffffffffffffffffffffffffffffffff167f17307eab39ab6107e8899845ad3d59bd9653f200f220920489ca2b5937696c3183604051611f85919061278e565b60405180910390a3505050565b611f9d848484611af0565b611fa98484848461217b565b611fe8576040517f08c379a0000000000000000000000000000000000000000000000000000000008152600401611fdf90613bd1565b60405180910390fd5b50505050565b606060405180602001604052806000815250905090565b60606000600161201484612302565b01905060008167ffffffffffffffff81111561203357612032612c8b565b5b6040519080825280601f01601f1916602001820160405280156120655781602001600182028036833780820191505090505b509050600082602001820190505b6001156120c8578080600190039150507f3031323334353637383961626364656600000000000000000000000000000000600a86061a8153600a85816120bc576120bb613bf1565b5b04945060008503612073575b819350505050919050565b60008073ffffffffffffffffffffffffffffffffffffffff166120f583611de9565b73ffffffffffffffffffffffffffffffffffffffff1614159050919050565b61211e8383612455565b61212b600084848461217b565b61216a576040517f08c379a000000000000000000000000000000000000000000000000000000000815260040161216190613bd1565b60405180910390fd5b505050565b50505050565b50505050565b600061219c8473ffffffffffffffffffffffffffffffffffffffff16612672565b156122f5578373ffffffffffffffffffffffffffffffffffffffff1663150b7a026121c561197c565b8786866040518563ffffffff1660e01b81526004016121e79493929190613c75565b6020604051808303816000875af192505050801561222357506040513d601f19601f820116820180604052508101906122209190613cd6565b60015b6122a5573d8060008114612253576040519150601f19603f3d011682016040523d82523d6000602084013e612258565b606091505b50600081510361229d576040517f08c379a000000000000000000000000000000000000000000000000000000000815260040161229490613bd1565b60405180910390fd5b805181602001fd5b63150b7a0260e01b7bffffffffffffffffffffffffffffffffffffffffffffffffffffffff1916817bffffffffffffffffffffffffffffffffffffffffffffffffffffffff1916149150506122fa565b600190505b949350505050565b600080600090507a184f03e93ff9f4daa797ed6e38ed64bf6a1f0100000000000000008310612360577a184f03e93ff9f4daa797ed6e38ed64bf6a1f010000000000000000838161235657612355613bf1565b5b0492506040810190505b6d04ee2d6d415b85acef8100000000831061239d576d04ee2d6d415b85acef8100000000838161239357612392613bf1565b5b0492506020810190505b662386f26fc1000083106123cc57662386f26fc1000083816123c2576123c1613bf1565b5b0492506010810190505b6305f5e10083106123f5576305f5e10083816123eb576123ea613bf1565b5b0492506008810190505b612710831061241a5761271083816124105761240f613bf1565b5b0492506004810190505b6064831061243d576064838161243357612432613bf1565b5b0492506002810190505b600a831061244c576001810190505b80915050919050565b600073ffffffffffffffffffffffffffffffffffffffff168273ffffffffffffffffffffffffffffffffffffffff16036124c4576040517f08c379a00000000000000000000000000000000000000000000000000000000081526004016124bb90613d4f565b60405180910390fd5b6124cd816120d3565b1561250d576040517f08c379a000000000000000000000000000000000000000000000000000000000815260040161250490613dbb565b60405180910390fd5b61251b60008383600161216f565b612524816120d3565b15612564576040517f08c379a000000000000000000000000000000000000000000000000000000000815260040161255b90613dbb565b60405180910390fd5b6001600360008473ffffffffffffffffffffffffffffffffffffffff1673ffffffffffffffffffffffffffffffffffffffff16815260200190815260200160002060008282540192505081905550816002600083815260200190815260200160002060006101000a81548173ffffffffffffffffffffffffffffffffffffffff021916908373ffffffffffffffffffffffffffffffffffffffff160217905550808273ffffffffffffffffffffffffffffffffffffffff16600073ffffffffffffffffffffffffffffffffffffffff167fddf252ad1be2c89b69c2b068fc378daa952ba7f163c4a11628f55a4df523b3ef60405160405180910390a461266e600083836001612175565b5050565b6000808273ffffffffffffffffffffffffffffffffffffffff163b119050919050565b60405180610100016040528060008152602001606081526020016000815260200160008152602001600081526020016060815260200160608152602001606081525090565b6000604051905090565b600080fd5b600080fd5b60007fffffffff0000000000000000000000000000000000000000000000000000000082169050919050565b612723816126ee565b811461272e57600080fd5b50565b6000813590506127408161271a565b92915050565b60006020828403121561275c5761275b6126e4565b5b600061276a84828501612731565b91505092915050565b60008115159050919050565b61278881612773565b82525050565b60006020820190506127a3600083018461277f565b92915050565b600081519050919050565b600082825260208201905092915050565b60005b838110156127e35780820151818401526020810190506127c8565b60008484015250505050565b6000601f19601f8301169050919050565b600061280b826127a9565b61281581856127b4565b93506128258185602086016127c5565b61282e816127ef565b840191505092915050565b600060208201905081810360008301526128538184612800565b905092915050565b6000819050919050565b61286e8161285b565b811461287957600080fd5b50565b60008135905061288b81612865565b92915050565b6000602082840312156128a7576128a66126e4565b5b60006128b58482850161287c565b91505092915050565b600073ffffffffffffffffffffffffffffffffffffffff82169050919050565b60006128e9826128be565b9050919050565b6128f9816128de565b82525050565b600060208201905061291460008301846128f0565b92915050565b612923816128de565b811461292e57600080fd5b50565b6000813590506129408161291a565b92915050565b6000806040838503121561295d5761295c6126e4565b5b600061296b85828601612931565b925050602061297c8582860161287c565b9150509250929050565b600081519050919050565b600082825260208201905092915050565b6000819050602082019050919050565b6129bb8161285b565b82525050565b60006129cd83836129b2565b60208301905092915050565b6000602082019050919050565b60006129f182612986565b6129fb8185612991565b9350612a06836129a2565b8060005b83811015612a37578151612a1e88826129c1565b9750612a29836129d9565b925050600181019050612a0a565b5085935050505092915050565b60006020820190508181036000830152612a5e81846129e6565b905092915050565b612a6f8161285b565b82525050565b6000602082019050612a8a6000830184612a66565b92915050565b60008060408385031215612aa757612aa66126e4565b5b6000612ab58582860161287c565b9250506020612ac68582860161287c565b9150509250929050565b600080600060608486031215612ae957612ae86126e4565b5b6000612af786828701612931565b9350506020612b0886828701612931565b9250506040612b198682870161287c565b9150509250925092565b600060208284031215612b3957612b386126e4565b5b6000612b4784828501612931565b91505092915050565b600082825260208201905092915050565b6000612b6c826127a9565b612b768185612b50565b9350612b868185602086016127c5565b612b8f816127ef565b840191505092915050565b600061010083016000830151612bb360008601826129b2565b5060208301518482036020860152612bcb8282612b61565b9150506040830151612be060408601826129b2565b506060830151612bf360608601826129b2565b506080830151612c0660808601826129b2565b5060a083015184820360a0860152612c1e8282612b61565b91505060c083015184820360c0860152612c388282612b61565b91505060e083015184820360e0860152612c528282612b61565b9150508091505092915050565b60006020820190508181036000830152612c798184612b9a565b905092915050565b600080fd5b600080fd5b7f4e487b7100000000000000000000000000000000000000000000000000000000600052604160045260246000fd5b612cc3826127ef565b810181811067ffffffffffffffff82111715612ce257612ce1612c8b565b5b80604052505050565b6000612cf56126da565b9050612d018282612cba565b919050565b600067ffffffffffffffff821115612d2157612d20612c8b565b5b612d2a826127ef565b9050602081019050919050565b82818337600083830152505050565b6000612d59612d5484612d06565b612ceb565b905082815260208101848484011115612d7557612d74612c86565b5b612d80848285612d37565b509392505050565b600082601f830112612d9d57612d9c612c81565b5b8135612dad848260208601612d46565b91505092915050565b60008060008060008060c08789031215612dd357612dd26126e4565b5b600087013567ffffffffffffffff811115612df157612df06126e9565b5b612dfd89828a01612d88565b9650506020612e0e89828a0161287c565b9550506040612e1f89828a0161287c565b945050606087013567ffffffffffffffff811115612e4057612e3f6126e9565b5b612e4c89828a01612d88565b935050608087013567ffffffffffffffff811115612e6d57612e6c6126e9565b5b612e7989828a01612d88565b92505060a087013567ffffffffffffffff811115612e9a57612e996126e9565b5b612ea689828a01612d88565b9150509295509295509295565b60008060408385031215612eca57612ec96126e4565b5b6000612ed88582860161287c565b9250506020612ee985828601612931565b9150509250929050565b612efc81612773565b8114612f0757600080fd5b50565b600081359050612f1981612ef3565b92915050565b60008060408385031215612f3657612f356126e4565b5b6000612f4485828601612931565b9250506020612f5585828601612f0a565b9150509250929050565b600067ffffffffffffffff821115612f7a57612f79612c8b565b5b612f83826127ef565b9050602081019050919050565b6000612fa3612f9e84612f5f565b612ceb565b905082815260208101848484011115612fbf57612fbe612c86565b5b612fca848285612d37565b509392505050565b600082601f830112612fe757612fe6612c81565b5b8135612ff7848260208601612f90565b91505092915050565b6000806000806080858703121561301a576130196126e4565b5b600061302887828801612931565b945050602061303987828801612931565b935050604061304a8782880161287c565b925050606085013567ffffffffffffffff81111561306b5761306a6126e9565b5b61307787828801612fd2565b91505092959194509250565b6000806040838503121561309a576130996126e4565b5b60006130a885828601612931565b92505060206130b985828601612931565b9150509250929050565b6000806000606084860312156130dc576130db6126e4565b5b60006130ea8682870161287c565b93505060206130fb8682870161287c565b925050604061310c86828701612931565b9150509250925092565b7f4e487b7100000000000000000000000000000000000000000000000000000000600052602260045260246000fd5b6000600282049050600182168061315d57607f821691505b6020821081036131705761316f613116565b5b50919050565b7f4552433732313a20617070726f76616c20746f2063757272656e74206f776e6560008201527f7200000000000000000000000000000000000000000000000000000000000000602082015250565b60006131d26021836127b4565b91506131dd82613176565b604082019050919050565b60006020820190508181036000830152613201816131c5565b9050919050565b7f4552433732313a20617070726f76652063616c6c6572206973206e6f7420746f60008201527f6b656e206f776e6572206f7220617070726f76656420666f7220616c6c000000602082015250565b6000613264603d836127b4565b915061326f82613208565b604082019050919050565b6000602082019050818103600083015261329381613257565b9050919050565b7f4e487b7100000000000000000000000000000000000000000000000000000000600052601160045260246000fd5b60006132d48261285b565b91506132df8361285b565b92508282039050818111156132f7576132f661329a565b5b92915050565b60006133088261285b565b91507fffffffffffffffffffffffffffffffffffffffffffffffffffffffffffffffff820361333a5761333961329a565b5b600182019050919050565b7f4552433732313a2063616c6c6572206973206e6f7420746f6b656e206f776e6560008201527f72206f7220617070726f76656400000000000000000000000000000000000000602082015250565b60006133a1602d836127b4565b91506133ac82613345565b604082019050919050565b600060208201905081810360008301526133d081613394565b9050919050565b600081905092915050565b50565b60006133f26000836133d7565b91506133fd826133e2565b600082019050919050565b6000613413826133e5565b9150819050919050565b7f4552433732313a20696e76616c696420746f6b656e2049440000000000000000600082015250565b60006134536018836127b4565b915061345e8261341d565b602082019050919050565b6000602082019050818103600083015261348281613446565b9050919050565b7f4552433732313a2061646472657373207a65726f206973206e6f74206120766160008201527f6c6964206f776e65720000000000000000000000000000000000000000000000602082015250565b60006134e56029836127b4565b91506134f082613489565b604082019050919050565b60006020820190508181036000830152613514816134d8565b9050919050565b60008190508160005260206000209050919050565b60006020601f8301049050919050565b600082821b905092915050565b60006008830261357d7fffffffffffffffffffffffffffffffffffffffffffffffffffffffffffffffff82613540565b6135878683613540565b95508019841693508086168417925050509392505050565b6000819050919050565b60006135c46135bf6135ba8461285b565b61359f565b61285b565b9050919050565b6000819050919050565b6135de836135a9565b6135f26135ea826135cb565b84845461354d565b825550505050565b600090565b6136076135fa565b6136128184846135d5565b505050565b5b818110156136365761362b6000826135ff565b600181019050613618565b5050565b601f82111561367b5761364c8161351b565b61365584613530565b81016020851015613664578190505b61367861367085613530565b830182613617565b50505b505050565b600082821c905092915050565b600061369e60001984600802613680565b1980831691505092915050565b60006136b7838361368d565b9150826002028217905092915050565b6136d0826127a9565b67ffffffffffffffff8111156136e9576136e8612c8b565b5b6136f38254613145565b6136fe82828561363a565b600060209050601f831160018114613731576000841561371f578287015190505b61372985826136ab565b865550613791565b601f19841661373f8661351b565b60005b8281101561376757848901518255600182019150602085019450602081019050613742565b868310156137845784890151613780601f89168261368d565b8355505b6001600288020188555050505b505050505050565b600081905092915050565b60006137af826127a9565b6137b98185613799565b93506137c98185602086016127c5565b80840191505092915050565b60006137e182856137a4565b91506137ed82846137a4565b91508190509392505050565b7f596f7520646f206e6f74206f776e2074686973207469636b6574000000000000600082015250565b600061382f601a836127b4565b915061383a826137f9565b602082019050919050565b6000602082019050818103600083015261385e81613822565b9050919050565b7f496e76616c696420627579657220616464726573730000000000000000000000600082015250565b600061389b6015836127b4565b91506138a682613865565b602082019050919050565b600060208201905081810360008301526138ca8161388e565b9050919050565b7f42757965722068617320616c726561647920626f756768742061207469636b6560008201527f7420666f722074686973206f63636173696f6e00000000000000000000000000602082015250565b600061392d6033836127b4565b9150613938826138d1565b604082019050919050565b6000602082019050818103600083015261395c81613920565b9050919050565b7f546f6b656e20646f6573206e6f74206578697374000000000000000000000000600082015250565b60006139996014836127b4565b91506139a482613963565b602082019050919050565b600060208201905081810360008301526139c88161398c565b9050919050565b7f4552433732313a207472616e736665722066726f6d20696e636f72726563742060008201527f6f776e6572000000000000000000000000000000000000000000000000000000602082015250565b6000613a2b6025836127b4565b9150613a36826139cf565b604082019050919050565b60006020820190508181036000830152613a5a81613a1e565b9050919050565b7f4552433732313a207472616e7366657220746f20746865207a65726f2061646460008201527f7265737300000000000000000000000000000000000000000000000000000000602082015250565b6000613abd6024836127b4565b9150613ac882613a61565b604082019050919050565b60006020820190508181036000830152613aec81613ab0565b9050919050565b7f4552433732313a20617070726f766520746f2063616c6c657200000000000000600082015250565b6000613b296019836127b4565b9150613b3482613af3565b602082019050919050565b60006020820190508181036000830152613b5881613b1c565b9050919050565b7f4552433732313a207472616e7366657220746f206e6f6e20455243373231526560008201527f63656976657220696d706c656d656e7465720000000000000000000000000000602082015250565b6000613bbb6032836127b4565b9150613bc682613b5f565b604082019050919050565b60006020820190508181036000830152613bea81613bae565b9050919050565b7f4e487b7100000000000000000000000000000000000000000000000000000000600052601260045260246000fd5b600081519050919050565b600082825260208201905092915050565b6000613c4782613c20565b613c518185613c2b565b9350613c618185602086016127c5565b613c6a816127ef565b840191505092915050565b6000608082019050613c8a60008301876128f0565b613c9760208301866128f0565b613ca46040830185612a66565b8181036060830152613cb68184613c3c565b905095945050505050565b600081519050613cd08161271a565b92915050565b600060208284031215613cec57613ceb6126e4565b5b6000613cfa84828501613cc1565b91505092915050565b7f4552433732313a206d696e7420746f20746865207a65726f2061646472657373600082015250565b6000613d396020836127b4565b9150613d4482613d03565b602082019050919050565b60006020820190508181036000830152613d6881613d2c565b9050919050565b7f4552433732313a20746f6b656e20616c7265616479206d696e74656400000000600082015250565b6000613da5601c836127b4565b9150613db082613d6f565b602082019050919050565b60006020820190508181036000830152613dd481613d98565b905091905056fea2646970667358221220a7b6a5f36836ed754f9c78cc00a0c8ecba9febda7c1a4987db955bcef7dd0ba064736f6c63430008110033",
  "linkReferences": {},
  "deployedLinkReferences": {}
}