{
  "_format": "hh-sol-artifact-1",
  "contractName": "TicketTransfer",
  "sourceName": "contracts/TicketTransfer.sol",
  "abi": [
    {
      "inputs": [
        {
          "internalType": "address",
          "name": "_tokenMasterAddress",
          "type": "address"
        }
      ],
      "stateMutability": "nonpayable",
      "type": "constructor"
    },
    {
      "inputs": [],
      "name": "tokenMaster",
      "outputs": [
        {
          "internalType": "contract TokenMaster",
          "name": "",
          "type": "address"
        }
      ],
      "stateMutability": "view",
      "type": "function"
    },
    {
      "inputs": [
        {
          "internalType": "uint256",
          "name": "_occasionId",
          "type": "uint256"
        },
        {
          "internalType": "uint256",
          "name": "_seat",
          "type": "uint256"
        },
        {
          "internalType": "address",
          "name": "_to",
          "type": "address"
        }
      ],
      "name": "transferTicket",
      "outputs": [],
      "stateMutability": "nonpayable",
      "type": "function"
    }
  ],
  "bytecode": "0x608060405234801561001057600080fd5b50604051610822380380610822833981810160405281019061003291906100db565b806000806101000a81548173ffffffffffffffffffffffffffffffffffffffff021916908373ffffffffffffffffffffffffffffffffffffffff16021790555050610108565b600080fd5b600073ffffffffffffffffffffffffffffffffffffffff82169050919050565b60006100a88261007d565b9050919050565b6100b88161009d565b81146100c357600080fd5b50565b6000815190506100d5816100af565b92915050565b6000602082840312156100f1576100f0610078565b5b60006100ff848285016100c6565b91505092915050565b61070b806101176000396000f3fe608060405234801561001057600080fd5b50600436106100365760003560e01c8063265d44091461003b578063f086a09b14610059575b600080fd5b610043610075565b6040516100509190610391565b60405180910390f35b610073600480360381019061006e9190610425565b610099565b005b60008054906101000a900473ffffffffffffffffffffffffffffffffffffffff1681565b3373ffffffffffffffffffffffffffffffffffffffff1660008054906101000a900473ffffffffffffffffffffffffffffffffffffffff1673ffffffffffffffffffffffffffffffffffffffff1663af296da185856040518363ffffffff1660e01b815260040161010b929190610487565b602060405180830381865afa158015610128573d6000803e3d6000fd5b505050506040513d601f19601f8201168201806040525081019061014c91906104c5565b73ffffffffffffffffffffffffffffffffffffffff16146101a2576040517f08c379a00000000000000000000000000000000000000000000000000000000081526004016101999061054f565b60405180910390fd5b60008054906101000a900473ffffffffffffffffffffffffffffffffffffffff1673ffffffffffffffffffffffffffffffffffffffff16639cb04aef84836040518363ffffffff1660e01b81526004016101fd92919061057e565b602060405180830381865afa15801561021a573d6000803e3d6000fd5b505050506040513d601f19601f8201168201806040525081019061023e91906105df565b1561027e576040517f08c379a00000000000000000000000000000000000000000000000000000000081526004016102759061067e565b60405180910390fd5b60008054906101000a900473ffffffffffffffffffffffffffffffffffffffff1673ffffffffffffffffffffffffffffffffffffffff16634937532c8484846040518463ffffffff1660e01b81526004016102db9392919061069e565b600060405180830381600087803b1580156102f557600080fd5b505af1158015610309573d6000803e3d6000fd5b50505050505050565b600073ffffffffffffffffffffffffffffffffffffffff82169050919050565b6000819050919050565b600061035761035261034d84610312565b610332565b610312565b9050919050565b60006103698261033c565b9050919050565b600061037b8261035e565b9050919050565b61038b81610370565b82525050565b60006020820190506103a66000830184610382565b92915050565b600080fd5b6000819050919050565b6103c4816103b1565b81146103cf57600080fd5b50565b6000813590506103e1816103bb565b92915050565b60006103f282610312565b9050919050565b610402816103e7565b811461040d57600080fd5b50565b60008135905061041f816103f9565b92915050565b60008060006060848603121561043e5761043d6103ac565b5b600061044c868287016103d2565b935050602061045d868287016103d2565b925050604061046e86828701610410565b9150509250925092565b610481816103b1565b82525050565b600060408201905061049c6000830185610478565b6104a96020830184610478565b9392505050565b6000815190506104bf816103f9565b92915050565b6000602082840312156104db576104da6103ac565b5b60006104e9848285016104b0565b91505092915050565b600082825260208201905092915050565b7f596f7520646f206e6f74206f776e2074686973207469636b6574000000000000600082015250565b6000610539601a836104f2565b915061054482610503565b602082019050919050565b600060208201905081810360008301526105688161052c565b9050919050565b610578816103e7565b82525050565b60006040820190506105936000830185610478565b6105a0602083018461056f565b9392505050565b60008115159050919050565b6105bc816105a7565b81146105c757600080fd5b50565b6000815190506105d9816105b3565b92915050565b6000602082840312156105f5576105f46103ac565b5b6000610603848285016105ca565b91505092915050565b7f526563697069656e7420616c7265616479206861732061207469636b6574206660008201527f6f722074686973206f63636173696f6e00000000000000000000000000000000602082015250565b60006106686030836104f2565b91506106738261060c565b604082019050919050565b600060208201905081810360008301526106978161065b565b9050919050565b60006060820190506106b36000830186610478565b6106c06020830185610478565b6106cd604083018461056f565b94935050505056fea2646970667358221220a7f96082244b936d4f7d4e636a3c6d6d47f4c5fc0e533182b0708f08365d13a364736f6c63430008110033",
  "linkReferences": {},
  "deployedLinkReferences": {}
}